:100000000C947E020C94A6020C94A6020C94A602F8
:100010000C94A6020C94A6020C94A6020C94A602C0
:100020000C94A6020C94A6020C94A6020C94A602B0
:100030000C94A6020C94A6020C94A6020C94A602A0
:100040000C9444090C94A6020C9412090C94EC082C
:100050000C94A6020C94A6020C94A6020C94A60280
:100060000C94A6020C94A602FFE0FFD1AFFF32FF72
:10007000D0FFFEFFE0FFD1AEFFD0FFFEFFE0FFD1DB
:100080001000FFFEFFD0FFE0FFC1FFD1AED580A87A
:100090003FD300408D142000A1C8DA1281CFD9F1DE
:1000A000DB402EA4A6AFFFD0FFFE00000008000238
:1000B0000100000304070000000000000000FFFF33
:1000C000FFFFFFFFFFFFFFFFFFFFFFFFFFFFFFFF40
:1000D000FFFFFFFFFFFFFFFFFFFFFFFFFFFFFFFF30
:1000E000FFFFFFFFFFFFFFFFFFFFFFFFFFFFFFFF20
:1000F000FFFFFFFFFFFFFFFFFFFFFFFFFFFFFFFF10
:10010000FFFFFFFFFFFFFFFFFFFFFFFFFFFFFFFFFF
:10011000FFFFFFFFFFFFFFFFFFFFFFFFFFFFFFFFEF
:10012000FFFFFFFFC1C000707FFFFFFFFFFFFFFF6A
:10013000FFFFFFFF01C000701FFFFFFFFFFFFFFF7A
:10014000FFFFFFFC01C000700FFFFFFFFFFFFFFF7D
:10015000FFFFFFF801C0007003FFFFFFFFFFFFFF7D
:10016000FFFFFFF001C0007001FFFFFFFFFFFFFF77
:10017000FFFFFFE001C0007000FFFFFFFFFFFFFF78
:10018000FFFFFFE001C0007000FFFFFFFFFFFFFF68
:10019000FFFFFFC001C00070007FFFFFFFFFFFFFF8
:1001A000FFFFFFC001C00070003FFFFFFFFFFFFF28
:1001B000FFFFFF8001C00070003FFFFFFFFFFFFF58
:1001C000FFFFFF8001C00070001FFFFFFFFFFFFF68
:1001D000FFFFFF0001C00070001FFFFFFFFFFFFFD8
:1001E000FFFFFF0001C00070001FFFFFFFFFFFFFC8
:1001F000FFFFFF0001C00070001FFFFFFFFFFFFFB8
:10020000FFFFFF0001C00070001FFFFFFFFFFFFFA7
:10021000FFFFFFFFFFFFFFFFFFFFFFFFFFFFFFFFEE
:10022000FFFFFFFFFFFFFFFFFFFFFFFFFFFFFFFFDE
:10023000FFFFFFFFFFFFFFFFFFFFFFFFFFFFFFFFCE
:10024000FFFFFF0001FFFFF0001FFFFFFFFFFFFFA9
:10025000FFFFFF0001FFFFF0001FFFFFFFFFFFFF99
:10026000FFFFFF0001FFFFF0001FFFFFFFFFFFFF89
:10027000FFFFFF0001FFFFF0001FFFFFFFFFFFFF79
:10028000FFFFFF0001FFFFF0001FFFFFFFFFFFFF69
:10029000FFFFFF0001FFFFF0001FFFFFFFFFFFFF59
:1002A000FFFFFF0001FFFFF0001FFFFFFFFFFFFF49
:1002B000FFFFFF0001FFFFF0001FFFFFFFFFFFFF39
:1002C000FFFFFF0001FFFFF0001FFFFFFFFFFFFF29
:1002D000FFFFFF0001FFFFF0001FFFFFFFFFFFFF19
:1002E000FFFFFF0001FFFFF0001FFFFFFFFFFFFF09
:1002F000FFFFFF0001FFFFF0001FFFFFFFFFFFFFF9
:10030000FFFFFF0001FFFFF0001FFFFFFFFFFFFFE8
:10031000FFFFFF0001FFFFF0001FFFFFFFFFFFFFD8
:10032000FFFFFF0001FFFFF0001FFFFFFFFFFFFFC8
:10033000FFFFFFFFFFFFFFFFFFFFFFFFFFFFFFFFCD
:10034000FFFFFFFFFFFFFFFFFFFFFFFFFFFFFFFFBD
:10035000FFFFFFFFFFFFFFFFFFFFFFFFFFFFFFFFAD
:10036000FFFFFF0001C00070001FFFFFFFFFFFFF46
:10037000FFFFFF0001C00070001FFFFFFFFFFFFF36
:10038000FFFFFF0001C00070001FFFFFFFFFFFFF26
:10039000FFFFFF0001C00078001FFFFFFFFFFFFF0E
:1003A000FFFFFF8001C000F8001FFFFFFFFFFFFFFE
:1003B000FFFFFF8001C000F8001FFFFFFFFFFFFFEE
:1003C000FFFFFFC001C001FC001FFFFFFFFFFFFF99
:1003D000FFFFFFC001C001FC001FFFFFFFFFFFFF89
:1003E000FFFFFFE001C003FE001FFFFFFFFFFFFF55
:1003F000FFFFFFF001C007FF001FFFFFFFFFFFFF30
:10040000FFFFFFF001C007FF801FFFFFFFFFFFFF9F
:10041000FFFFFFFC01C01FFFC01FFFFFFFFFFFFF2B
:10042000FFFFFFFE01C03FFFE01FFFFFFFFFFFFFD9
:10043000FFFFFFFF81C0FFFFF81FFFFFFFFFFFFF70
:10044000FFFFFFFFF1C7FFFFFF1FFFFFFFFFFFFFE2
:10045000FFFFFFFFFFFFFFFFFFFFFFFFFFFFFFFFAC
:10046000FFFFFFFFFFFFFFFFFFFFFFFFFFFFFFFF9C
:10047000FFFFFFFFFFFFFFFFFFFFFFFFFFFFFFFF8C
:10048000FFFFFFFFFFFFFFFFFFFFFFFFFFFFFFFF7C
:10049000FFFFFFFFFFFFFFFFFFFFFFFFFFFFFFFF6C
:1004A000FFFFFFFFFFFFFFFFFFFFFFFFFFFFFFFF5C
:1004B000FFFFFFFFFFFFFFFFFFFFFFFFFFFF00004A
:1004C0000000250028002B00000000002400270069
:1004D0002A000404040404040404020202020202C6
:1004E00003030303030301020408102040800102F8
:1004F000040810200102040810208E0911241FBED8
:10050000CFEFD8E0DEBFCDBF11E0A0E0B1E0EAE57B
:10051000F7E102C005900D92A433B107D9F722E0AC
:10052000A4E3B1E001C01D92AE3AB207E1F712E0D8
:10053000CEE7D2E004C02197FE010E94A50BCD3783
:10054000D107C9F70E947B0A0C94AB0B0C940000F6
:10055000089580E0089590E0FC01EA51FB4F24915A
:100560008E529B4FFC018491882399F090E0880F74
:10057000991FFC01E853FB4FA591B491FC01E25493
:10058000FB4F859194918FB7F894EC91E22BEC930B
:100590008FBF0895AF92BF92CF92DF92EF92FF92FA
:1005A0000F931F93CF93DF936C017B018B01040F9B
:1005B000151FEB015E01AE18BF08C017D10759F037
:1005C0006991D601ED91FC910190F081E02DC60179
:1005D0000995892B79F7C501DF91CF911F910F9173
:1005E000FF90EF90DF90CF90BF90AF900895FC0107
:1005F000538D448D252F30E0842F90E0821B930B88
:10060000541710F0CF96089501970895FC01918D2D
:10061000828D981761F0A28DAE0FBF2FB11D5D9630
:100620008C91928D9F5F9F73928F90E008958FEFD2
:100630009FEF0895FC01918D828D981731F0828D86
:10064000E80FF11D858D90E008958FEF9FEF0895DD
:10065000FC01918D228D892F90E0805C9F4F821B41
:1006600091098F73992708958FEB91E00E942803D9
:1006700021E0892B09F420E0822F089580E090E0AA
:10068000892B29F00E94340381110C9400000895F5
:10069000FC01A48DA80FB92FB11DA35ABF4F2C91F7
:1006A000848D90E001968F739927848FA689B789EE
:1006B0002C93A089B1898C91837080648C93938DE5
:1006C000848D981306C00288F389E02D80818F7D88
:1006D00080830895EF92FF920F931F93CF93DF9340
:1006E000EC0181E0888F9B8D8C8D98131AC0E8896E
:1006F000F989808185FF15C09FB7F894EE89FF893D
:100700006083E889F98980818370806480839FBFDA
:1007100081E090E0DF91CF911F910F91FF90EF90DA
:100720000895F62E0B8D10E00F5F1F4F0F731127EA
:10073000E02E8C8D8E110CC00FB607FCFACFE88925
:10074000F989808185FFF5CFCE010E944803F1CF62
:10075000EB8DEC0FFD2FF11DE35AFF4FF0829FB799
:10076000F8940B8FEA89FB8980818062CFCFCF9389
:10077000DF93EC01888D8823B9F0AA89BB89E889C9
:10078000F9898C9185FD03C0808186FD0DC00FB66F
:1007900007FCF7CF8C9185FFF2CF808185FFEDCFED
:1007A000CE010E944803E9CFDF91CF91089590E0F8
:1007B000FC01E655FF4F2491FC01EA51FB4F3491B7
:1007C000FC01EE52FB4FE491EE23C9F0222339F0F5
:1007D000233001F1A8F4213019F1223029F1F0E0A1
:1007E000EE0FFF1FE254FB4FA591B4918FB7F89421
:1007F000EC91611126C030953E233C938FBF089544
:100800002730A9F02830C9F0243049F780918000C2
:100810008F7D03C0809180008F7780938000DFCF31
:1008200084B58F7784BDDBCF84B58F7DFBCF80917E
:10083000B0008F778093B000D2CF8091B0008F7DD1
:10084000F9CF3E2BDACFDC011696ED91FC9117978C
:1008500012968C91481B477081E090E001C0880F90
:100860004A95EAF7E60FF11D3081222319F0832B18
:100870008083089580958323FBCFFB014181DC01B8
:1008800012962C911297421768F013962C91139799
:10089000241740F0608115962C91621718F424817A
:1008A0000C9423040895FC0180819281980F928317
:1008B0002181921760F494819F5F94839381890FC3
:1008C000821710F08FEF820F838381E0089580E01C
:1008D0000895FC01128280818150838314820895DF
:1008E000DB01ED91FC9109940F931F93CF93DF935C
:1008F0001F92CDB7DEB70091620210916302E091C2
:100900009102F091920282E0099530E020E04AE005
:10091000B80180E692E00E947004182FE0919102E5
:10092000F091920283E00995E0919102F091920298
:1009300080E009951123B9F1609162027091630220
:100940009E012F5F3F4F46E480E692E00E947004D4
:1009500089818093600260916202709163029E01BE
:100960002F5F3F4F47E480E692E00E947004898148
:1009700080936102609162027091630230E020E036
:1009800048E480E692E00E94700480936B026091DC
:1009900062027091630223E932E047E180E692E06F
:1009A0000E94700411E0812F0F90DF91CF911F9171
:1009B0000F9108950B96FC01849108950A96FC010D
:1009C00084910895FC01849108950E94E204882393
:1009D00021F0823011F083E0089586E00895FC0153
:1009E000E60FF11D849190E0982F88273196E491CD
:1009F0008E0F911D089568E00C94EF0466E00C944E
:100A0000EF042EE93FE0009709F40895F9013197CA
:100A1000F1F70197F8CFCF93DF9300D0CDB7DEB7D2
:100A200020ED37E03A8329839091BC00982311F0A0
:100A300081E00FC029813A81232B81F48091BE018E
:100A400081FDF6CF8091BD0181110DC091E09093A1
:100A5000BD010F900F90DF91CF91089529813A81C8
:100A600021503109DFCF80E0F4CF84EA8093BC00CD
:100A700061E080E80E940B05811102C080E00895CA
:100A80008091B900887F883051F0803141F08091A9
:100A9000BD018111F3CF82E08093BD01EFCF88E7E4
:100AA0008093BB0084E88093BC0062E080E80E94F1
:100AB0000B05882319F38091BE0181FD05C080914B
:100AC000B900887F883119F781E0089584E980931F
:100AD000BC0064E080E10C940B058093BB0084E8CB
:100AE0008093BC0063E080E80E940B058823A1F09E
:100AF0008091BE0181FD0DC08091B900887F883250
:100B000041F08091BD01811106C092E09093BD013A
:100B1000089581E0089580E008951092BD01089540
:100B20008093BE011092B90084FF05C08CE08093D1
:100B3000B8000C948D0588E4FACFCF93DF93FC01C5
:100B400023A5222389F0EC010E943505811104C000
:100B500080E0DF91CF9108958EA1811107C00E949E
:100B60006D058823A9F31BA681E0F3CF80E4F7CFBE
:100B70000F931F93CF93DF93C62FD42F8901633038
:100B800001F138F4613099F0623009F449C0C1E0F4
:100B900012C0663029F1673091F16530C1F70E94CB
:100BA0009D05811117C00E946605C0E004C0FC01CC
:100BB00086A50E9490058C2FDF91CF911F910F91F8
:100BC0000895FC0116A221E023A74111E0CF0E9465
:100BD0006605DDCF8D2F0E946D058111D8CFE3CF43
:100BE0000E949D058823F9F2DD2389F2F8018191A5
:100BF0008F010E946D058823B1F2D150F5CF0E947C
:100C00009D05882381F2DD2311F2F80184910E9471
:100C10006D05C82F882379F20F5F1F4FD150F3CF96
:100C2000FC0146A321E023A7B2CFDB011496ED918E
:100C3000FC9130E020E065E00994DB011496ED9131
:100C4000FC9130E020E062E00994DB011496ED9124
:100C5000FC9130E020E063E00994CF92DF92EF92C4
:100C6000FF920F931F93CF93DF938C017B016A0157
:100C700080E0F601C491811110C081E0CF3F49F0BE
:100C80004C2FB701C8010E941506882309F444C0FF
:100C900080E0BFEFCB1ADB0AECCF4FEFCF3F89F3F9
:100CA000CE3FD9F1C03FA0F7C03E38F04C2F4F7077
:100CB000B701C8010E941D06EBCFC03D38F04C2F94
:100CC0004F70B701C8010E942506E2CFC03CF8F082
:100CD000D7011496ED91FC9130E020E040E064E013
:100CE000C8010995C295C07FCE5FD0E0CE010E94B9
:100CF0000105D7011496ED91FC9130E020E041E030
:100D000064E0C8010995CE010E940105C1CFC7FD6D
:100D1000BFCF8C2F90E0F8CF80E0DF91CF911F9173
:100D20000F91FF90EF90DF90CF900895AF92BF9218
:100D3000CF92DF92FF920F931F93CF93DF936C01BB
:100D40008B01F42EE90180E1481709F47EC0841775
:100D500078F1AAE04A1709F461C0BFE04B1709F423
:100D60007FC0F80102811381F2E3FF1609F4DDC0B0
:100D7000FF1508F48EC085E1F81609F4DBC0A7E181
:100D8000FA1609F4ECC0B4E1FB1265C0D80116965E
:100D9000ED91FC91179715968C918E0F9F2F911DB9
:100DA00011928E179F07E1F7C8010E94690453C092
:100DB000E1E14E1709F451C0F5E14F13D2CFFB0129
:100DC000A280B3804CE750E0C6010E942D06D501F9
:100DD00014964C91406BB801C6010E94150641E083
:100DE000B801C6010E941D06F50126813781D80190
:100DF0001496ED91FC91D50115964C9166E0C601D3
:100E0000099581111CC080E0DF91CF911F910F9156
:100E1000FF90DF90CF90BF90AF900895DB011496C4
:100E2000ED91FC9130E020E042E061E0C6010995DF
:100E300044E850E0B801C6010E942D0692CF40E080
:100E4000B801C6010E9425068CCF43E750E0B801E7
:100E5000C6010E942D0681E0D7CF48E650E0F7CFCB
:100E600041E0C6010E94250640E0B801C6010E948B
:100E70001D0641E8B801C6010E9415064881B80167
:100E8000C6010E94150640E0B801C6010E94250671
:100E9000E2CFE6E4FE1609F46CC0F7E4FF1609F4AD
:100EA0006DC08BE3F812D7CF99818B8138E0390F71
:100EB000813031F0833011F0392F02C0392F985032
:100EC00021E0D80113964C91491708F420E041E045
:100ED000391708F040E091E0F8015281351708F425
:100EE00090E0322F342B932319F4242309F4B3CF49
:100EF000FA80D12CC12C843048F490E0FC01EE5EE5
:100F0000FE4FC080825F9E4FDC01DC90F7FE04C084
:100F1000BE01C8010E943D0488818C0D88838981AF
:100F20008D0D8983FF0C91F796CFBE01C8010E94F9
:100F30003D0491CFC8010E945304882309F463CF74
:100F4000D8011696ED91FC91179715968C918E0FFE
:100F50009F2F911D11928E179F07E1F77CCF18826A
:100F6000F80182818983858181508A8383818B8383
:100F700072CFD80115968C9188836DCFF80181814D
:100F8000FBCF3F924F925F926F927F928F929F9290
:100F9000AF92BF92CF92DF92EF92FF920F931F9387
:100FA000CF93DF93EC01B62EFCAC9BAC6C0124E03C
:100FB000C20ED11CE98DFA8DC6010995882E0885CF
:100FC0001985C8010E94E204E82E888599850E944F
:100FD000E504682E81E077247A94E81202C02FE0BD
:100FE000722E888599850E94DE04E82E8885998571
:100FF0000E94DA04A82E888599850E94FB04E0E609
:10100000EB1578F4009769F0080F191F91E6E92EA7
:10101000AB14C0F41C8A1F8A188E1D8A1E8A80E0B9
:10102000A2C0888599850E94FE04F0E4FB1538F47F
:10103000009729F0080F191F81E4E82EE9CF0F5E11
:101040001F4FE6CFAE1430F3862D90E0F8012491C7
:101050002F3F31F40F5F1F4FAE14E1F2E394F6CF50
:10106000BE1074C0888599850E94E20498012F5FA4
:101070003F4FF801882319F0823009F050C0849165
:101080008F8BF9012491288FF8013396E491EC8B32
:10109000F8013496E491ED8BF8013596E491EE8BEE
:1010A0000115110509F4BBCF888599850E94E504D7
:1010B000388D7F2C731A9E89791A780C9FEF930FC5
:1010C000970D28AD4AAD471508F449C0921718F49A
:1010D000971508F047C02F896D88690C9FEF920F14
:1010E000960D4FA959AD561508F454C0941718F42D
:1010F000961508F037C0080F111D295F522E56941F
:1011000056945694432E470C5E01F0E2AF0EB11C8C
:10111000852C912C741431F1362C780151C08491B6
:10112000982F9F7092509E8B82958F708D8BF901B6
:101130002491822F8F70888F22952F702F8BF8012A
:101140003296E491E295EF70EC8BAACF3296E4915F
:10115000E721E80FF92FF11D0E0F1F1F7DCF92170A
:1011600008F0B6CF8C899BAD890F8BAF81E090E002
:10117000DF91CF911F910F91FF90EF90DF90CF9073
:10118000BF90AF909F908F907F906F905F904F90A7
:101190003F900895941708F0ABCFE4CFF701849106
:1011A0006E817F8138A279A21BA28AA395014BE3AD
:1011B000C6010E947004FFEFEF1AFF0A28E0320E0A
:1011C0008E2D801B851550F3080D191D7394A2CF29
:1011D000089590E080E008951F920F920FB60F924D
:1011E00011242F933F934F935F936F937F938F932C
:1011F0009F93AF93BF93EF93FF938FEB91E00E9488
:101200004803FF91EF91BF91AF919F918F917F9193
:101210006F915F914F913F912F910F900FBE0F9063
:101220001F9018951F920F920FB60F9211242F93B3
:101230008F939F93EF93FF93E091CF01F091D001B3
:101240008081E091D501F091D60182FD1BC0908193
:101250008091D8018F5F8F732091D901821741F05F
:10126000E091D801F0E0E154FE4F958F8093D801D2
:10127000FF91EF919F918F912F910F900FBE0F9043
:101280001F9018958081F4CF1F920F920FB60F9286
:1012900011242F933F938F939F93AF93BF9380918C
:1012A000B9019091BA01A091BB01B091BC013091FC
:1012B000B80123E0230F2D3758F50196A11DB11D6C
:1012C0002093B8018093B9019093BA01A093BB0118
:1012D000B093BC018091B4019091B501A091B60189
:1012E000B091B7010196A11DB11D8093B4019093F7
:1012F000B501A093B601B093B701BF91AF919F9193
:101300008F913F912F910F900FBE0F901F901895C6
:1013100026E8230F0296A11DB11DD2CFCF92DF92F6
:10132000EF92FF920F931F93CF93DF931092C2011E
:101330001092C10188EE93E0A0E0B0E08093C30179
:101340009093C401A093C501B093C6018AE191E0D6
:101350009093C0018093BF0185EC90E09093CC0105
:101360008093CB0184EC90E09093CE018093CD01EB
:1013700080EC90E09093D0018093CF0181EC90E0DD
:101380009093D2018093D10182EC90E09093D401AC
:101390008093D30186EC90E09093D6018093D501A1
:1013A0001092D8011092D9011092DA011092DB014B
:1013B00083E00E94AB0284E00E94AB0285E00E94C1
:1013C000AB0286E00E94AB02C3E0D0E0D093A5025E
:1013D000C093A40204E010E01093A7020093A602B9
:1013E00085E0E82EF12CF092A902E092A80296E0A6
:1013F000C92ED12CD092AB02C092AA0286E00E94E4
:10140000AB0285E00E94AB0284E00E94AB0283E065
:101410000E94AB02D0929B02C0929A02F0929D026F
:10142000E0929C0210939F0200939E02D093A1022F
:10143000C093A00210925F0210925E028CE291E0D3
:1014400090935D0280935C02109297021092980232
:101450001092990210926502109264021092670233
:10146000109266021092690281E08093680282E223
:1014700080936A0210926F0210926E02E3E8F2E02B
:1014800081E992E02FEF21938E179F07E1F781E02A
:101490008093800229EA32E030937602209375022D
:1014A00080937702109278021092790280E4809300
:1014B0007A0210927B0288EA92E0909392028093E3
:1014C000910288E091E0909363028093620282E04F
:1014D00080938E020E9474048CE291E090935D02EE
:1014E00080935C02DF91CF911F910F91FF90EF905D
:1014F000DF90CF900895789484B5826084BD84B5E0
:10150000816084BD85B5826085BD85B5816085BDFE
:1015100080916E00816080936E00109281008091B6
:10152000810082608093810080918100816080933E
:101530008100809180008160809380008091B10063
:1015400084608093B1008091B00081608093B0008E
:1015500080917A00846080937A0080917A00826022
:1015600080937A0080917A00816080937A008091E4
:101570007A00806880937A001092C100809199026D
:10158000811105C081E0809399020E947404C0918A
:101590006202D0916302E0919102F091920282E0A6
:1015A0000995E0919102F091920281E0099530E075
:1015B00020E044E1BE0180E692E00E94700423E94D
:1015C00032E047E1BE0180E692E00E947004E091C3
:1015D0009102F091920280E009958091940280340A
:1015E00058F58091930287FD27C08EEBE82E80E0AE
:1015F000F82ED0E08701C0E0F8018491609162028A
:1016000070916302C0937C02D0937D0210927F029E
:1016100080937E022CE732E04BE380E692E00E946A
:1016200070040F5F1F4FC85FC03831F7F0E1EF0E55
:10163000F11CDF5FD034F1F6E0916E02F0916F02A1
:10164000309719F080E692E00995009162021091BE
:101650006302E0919102F091920282E00995E0919B
:101660009102F091920281E0099530E020E045E19D
:10167000B80180E692E00E947004C82F882341F0F0
:1016800023E932E047E1B80180E692E00E9470046D
:10169000E0919102F091920280E00995C1119DCFF5
:1016A00088E00E94AB0260E088E00E94D70387E0F8
:1016B0000E94AB0261E087E00E94D70389E00E94AC
:1016C000AB0260E089E00E94D703E091CF01F09186
:1016D000D00182E08083E091CB01F091CC011082B7
:1016E000E091CD01F091CE018FEC80831092D70173
:1016F000E091D301F091D40186E08083E091D101A3
:10170000F091D201808180618083E091D101F091DC
:10171000D201808188608083E091D101F091D20173
:10172000808180688083E091D101F091D201808135
:101730008F7D8083C0E0D0E02097F1F30E943403D6
:101740008823D1F30E940000F7CFEE0FFF1F059012
:0A175000F491E02D0994F894FFCF06
:10175A00084000000080340196060001B805000127
:10176A0000FF0100FF00000000006A03CA02F7023E
:10177A00B703280306031A0300000000C107CA02C0
:04178A00E908E8087A
:00000001FF
